:020000001528C1
:100008007E14803120007F08F0002100901E102807
:100018002000901E1028D02670082000FF007E10B7
:1000280009001628FC0158308400003085000F3084
:100038000F277E102000202815272130F1000730D7
:10004800F2001B278B170B178030320098008A2587
:1000580000302000AC00AD0033267F302000CE00F9
:100068004E08E0007F30CE004E08E1007F30CE0021
:100078004E08E2001530CE004E08E5000030BA0008
:10008800BB000030BC00BD000730BE000030BF0020
:100098003F30C0000130C100FF30C200FF30C30054
:1000A8002B24E8302000BA000030BB000030BC0030
:1000B800BD00EF30BE000030BF003F30C00001304F
:1000C800C100FF30C200FF30C3002B2408302000DD
:1000D800BA000030BB000030BC00BD00E730BE00F5
:1000E8000030BF000730C0000030C100FF30C20040
:1000F800FF30C3002B242000D301E0305302031843
:10010800B4283A30C7000030C8000030C900F830C1
:10011800CA005308083E13264A302000C7000030A2
:10012800C800E030C9000730CA005308083E13264B
:100138005A302000C7000030C800E030C900FF3046
:10014800CA005308083E132620302000CE004E086F
:10015800D3078128C3261130F1000030F200B526FC
:1001680020000C092839031D4E2BAE286430CE0020
:100178004E08E6007830CE004E08E4001D30DC0062
:100188000130DD00C32603392000CE004E08E3000D
:1001980063356307CE004E08E300FC30CE004E08FE
:1001A800E30702306306031D630A031DDD28FA30E6
:1001B800E428FC306306031DE328FB30E428FC3008
:1001C800DA00FF30DB00582520000C092839031914
:1001D800F428C3261130F1000030F200B526E828D3
:1001E80058251130F1000030F200B5268E26200087
:1001F8006608CE00CF014E08BA004F08BB00253074
:10020800BC000130BD006608033EBE000030031884
:100218000130BF002930C0000130C1000030C200E9
:10022800C3002B2420006608243EBA0000300318BF
:100238000130BB002530BC000130BD006608273EF8
:10024800BE00003003180130BF002930C000013063
:10025800C1000030C200C3002B2420008C1A4029A2
:10026800C32604302000E60208306602031840293D
:100278000830CE004E08E6008C195F29C3260430EA
:100288002000CE004E08E6076608283ECE00003063
:1002980003180130CF004F08803AD0008030500258
:1002A800031D5829E9304E02031C5F29C030200085
:1002B800CE004E08E60020006308CE004E08E40792
:1002C8005A08DC075B08DD3D5B08803ACE008030C9
:1002D8004E02031D712901305A02031C0D2A200009
:1002E8005C08083ED50000305D3DD600013056025E
:1002F800353003195502031C8A295825D030F100DE
:100308000730F200B5268E2672264E2B01302000CB
:100318005602263003195502031C242A6408043E99
:10032800CE00003003180130CF004F08803AD000CB
:1003380080305002031DA22966084E02031C242A9D
:1003480020006608283ECE00003003180130CF0098
:100358006408FC3ED000FF3003180030D10051087B
:10036800803AD2004F08803A5202031DBD294E0838
:1003780050020318242A1D302000DC000130DD0063
:10038800DA09DB09DA0A0319DB0AC326013903197A
:10039800242A20006308803A7C3E031CD629C32601
:1003A8000339EC296308803A833E0318DE29C32603
:1003B8000339E5296308803A7F3E031CEA29C326EE
:1003C80002392000CE004E08E307F029C32602397F
:1003D8002000CE004E08E3026308803A7B3E0318F3
:1003E800FA296308803A843E0318FC29FC30092A5C
:1003F8006308803A7D3E0318062A6308803A823EE5
:100408000318082AFB30092AFA30DA00FF30DB002B
:10041800242A20005C08F83ED500FF305D3DD60058
:10042800003056020930031955020318242A1030E7
:10043800DC000030DD00DA09DB09DA0A0319DB0A1F
:100448002000E31F2A2A6408043E2C2A6408FC3E84
:10045800CE004E08D4000130CE005408CF0005303D
:10046800CF36890B342A4F08890A3B2ACE35890BA7
:100478003A2A4E08D0005008D7005408E039083E00
:10048800CE004E08D400003056023A300319550207
:10049800031C972A003056024A30031955020318E4
:1004A800642A600857050319972A5709CE004E0891
:1004B800E005DA09DB09DA0A0319DB0A3A308F2A80
:1004C800003056025A300319550203187A2A610877
:1004D80057050319972A5709CE004E08E105DA098E
:1004E800DB09DA0A0319DB0A4A308F2A0030560280
:1004F8006A30031955020318972A62085705031929
:10050800972A5709CE004E08E205DA09DB09DA0A0C
:100518000319DB0A5A30C7000030C80054085326B4
:1005280001302000E502E31F9C2A6408F03E9D2A62
:100538006408CE004E08D4000130CE005408CF0025
:100548000530CF36890BA52A4F08890AAC2ACE3543
:10055800890BAB2A4E08D0005008D7005408E03960
:10056800083ECE004E08D4005B08803ACE008030AA
:100578004E02031DC12A01305A02031CC92A200059
:100588005C08FC3ED500FF30CE2A20005C08043E03
:10059800D50000305D3DD600003056023A300319D0
:1005A8005502031C172B003056024A300319550216
:1005B8000318EA2A600857050319172B5709CE00B4
:1005C8004E08E005E309E30A3A300F2B00305602E3
:1005D8005A30031955020318FD2A610857050319F3
:1005E800172B5709CE004E08E105E309E30A4A3004
:1005F8000F2B003056026A30031955020318172BC7
:10060800620857050319172B5709CE004E08E20553
:10061800E309E30A5A30C7000030C80054085326DB
:1006280001302000E5026408F83ECE00FF300318D0
:100638000030CF004F08803AD00080305002031DB0
:10064800272B09304E0203182B2B10303F2B20008C
:100658006408083ECE00003003180130CF004F0870
:10066800803AD00080305002031D3C2BE8304E0207
:10067800031C452BE0302000CE004E08E400E309BF
:10068800E30A20006508031DF428E830F100033070
:10069800F200B5262000650803192C28BA28200086
:1006A8003F08C9003E08C800CA01CB013F08C30083
:1006B8003E08C200C235C30DC209C309C20A0319E4
:1006C800C30A4208033EC6000030433DC70049083C
:1006D800803AC2004B08803A4202031D752B4A0833
:1006E8004802031C080020004809C2004909C30049
:1006F800C20A0319C30A3A084207AC003B08433D43
:10070800AD0048083A07AE0049083B3DAF004A092A
:10071800C4004B09C500C40A0319C50A3C084407AC
:10072800B0003D08453DB1004108B3004008B200A3
:10073800B52420004809C2004909C300C20A0319A8
:10074800C30A3A084207AC003B08433DAD004808DD
:100758003A07AE0049083B3DAF004A083C07B000E5
:100768004B083D3DB1004108B3004008B200B52434
:1007780020004A09C2004B09C300C20A0319C30A70
:100788003A084207AC003B08433DAD004A083A0727
:10079800AE004B083B3DAF004809C4004909C500FD
:1007A800C40A0319C50A3C084407B0003D08453D82
:1007B800B1004108B3004008B200B52420004A093E
:1007C800C2004B09C300C20A0319C30A3A08420708
:1007D800AC003B08433DAD004A083A07AE004B0861
:1007E8003B3DAF0048083C07B00049083D3DB1001B
:1007F8004108B3004008B200B5242000C71B142CE0
:10080800FF30C807FF30C93D4908C3004808C20087
:10081800C235C30DC235C30D4208C6024308C73BE3
:100828000130CA070030CB3D4B08C3004A08C2005C
:10083800C235C30DC235C30D4208023EC4000030A4
:10084800433DC5004408C6074508C73D6B2B20003B
:100858003F08803AC4003B08803A4402031D362C06
:100868003A083E020318452C20003B08C6003A0807
:10087800C5003F08BB003E08BA004608BF0045084F
:10088800BE002000BF1B08003B08803AC40080302F
:100898004402031D512CF0303A02031808002000CE
:1008A8004108803AC4003D08803A4402031D5E2C8A
:1008B8003C08400203186D2C20003D08C6003C0887
:1008C800C5004108BD004008BC004608C1004508F5
:1008D800C0002000C11B08003D08803AC4008130D8
:1008E8004402031D792C40303C0203180800200004
:1008F800BD1F802CBC01BD014108803AC400813075
:100908004402031D892C40304002031C902C3F30C8
:100918002000C0000130C10020004108803AC40016
:100928003D08803A4402031D9B2C3C084002031CEE
:10093800080020003B08AD003A08AC003F08AF00B3
:100948003E08AE003D08B1003C08B0004308B300C3
:100958004208B200B52401302000BC070030BD3D7C
:10096800902C2000B11B08003108803AB400813077
:100978003402031DC12C4030300203180800200047
:100988002F08803AB4002D08803A3402031DCE2C7B
:100998002C082E020318DD2C20002D08B9002C0885
:1009A800B8002F08AD002E08AC003908AF00380891
:1009B800AE002000AF1B08002D08803AB40080303C
:1009C8003402031DE92CF0302C0203180800200023
:1009D800AD1FF02CAC01AD012F08803AB400803077
:1009E8003402031DF92CF0302E02031C002DEF30C9
:1009F8002000AE000030AF0020002D08A3002C0816
:100A0800A2003108A5003008A4003308A700320866
:100A1800A6002C09B4002D09B500B40A0319B50ABB
:100A28002E083407B6002F08353DB7003608013EBA
:100A3800A8000030373DA900E725080022008C01F6
:100A4800203021008C0023008C01283024008C00E9
:100A580025008C0100308B1B0130F1008B135530C1
:100A68003C008F00AA308F000F103D001108E039BC
:100A7800183891003C002008E0390138A00021080E
:100A8800E0390238A1003D001008E039193890001B
:100A980055303C008F00AA308F000F14711C562D62
:100AA8008B1708008B13080020006408CC00CD01C8
:100AB8004C08BA004D08BB005D08BD005C08BC00CE
:100AC8000730BE000030BF00FF30C000FF30C1005B
:100AD800532320006608CC00CD014C08BA004D080D
:100AE800BB002530BC000130BD006608273EBE00B3
:100AF800003003180130BF002930C0000130C100A8
:100B0800FF30C2000730C3002B24080022000C0865
:100B180004388C000C0810388C000130F1000030CB
:100B2800F200B52622000C08EF398C000A30F100DB
:100B38000030F200B52622000C0810388C007830FE
:100B4800F1000030F200B526363000274830F8268C
:100B58003A3000275530F826113000277830F10058
:100B68000030F200B5262930002708002A30002777
:100B78007508F3007408F200E62678087407200068
:100B8800A0007908753DA1002008FF3EF200FF3063
:100B9800213DF300E6262B3000277708F30076087E
:100BA800F200E6267A0876072000A0007B08773D49
:100BB800A1002008FF3EF200FF30213DF300E626A9
:100BC8002C300027080020002308F5002208F40034
:100BD8002508F7002408F6002908F9002808F80075
:100BE8000130FA000030FB00BA2522000C08043856
:100BF8008C002000AA01AB0129082B02031D062E38
:100C080028082A02031808002708EF2620002608CB
:100C1800EF2601302000AA070030AB3D002E20004F
:100C2800CD004D08CB00CC014B08BA004C08BB00E6
:100C38004808BD004708BC004D081E3EBE000030F5
:100C480003180130BF0047080E3EC0000030483D81
:100C5800C1004A08C3004908C2002B24080020002C
:100C6800AE01AF0101302F02403003192E020318E4
:100C780008000030A200A3002F08A5002E08A40039
:100C88002D08A7002C08A600F030A8000030A90005
:100C9800E72501302000AE070030AF3D362E20009A
:100CA800CB004B08C900CA014908BA004A08BB0072
:100CB8004808BD004708BC004B081E3EBE00003077
:100CC80003180130BF0047080E3EC0000030483D01
:100CD800C1000030C200C3002B24080020006608B1
:100CE800C700C8014708BA004808BB002530BC0047
:100CF8000130BD006608273EBE00003003180130F1
:100D0800BF002930C0000130C1000030C200C3005C
:100D18002B24080020006408CC00CD014C08BA0040
:100D28004D08BB005D08BD005C08BC000730BE0074
:100D38000030BF000030C000C1005323080001305C
:100D48002000970044309800F930960095019012E1
:100D5800210090162E30F1000730F2001B272B27B8
:100D68000800720820005F02031DBC2E71085E0295
:100D78000318C02E6300B52EDE01DF0108007C35A4
:100D88007C077C077C07F1007108FC000130F1004A
:100D98007108FC077C0808002000901258085904C4
:100DA8000319080059088A0058080A008631080003
:100DB800320099019B019D0106309F009E011C187D
:100DC8000800E32E22000C0804388C007308EF2674
:100DD8007208EF260800F1002400951371089100AD
:100DE800141CF42E11080800F20022000C08043824
:100DF8008C007208EF260800F20022000C08FB396C
:100E08008C007208EF26080040302400940020303F
:100E1800950092010800640080010131890B102FB0
:100E280000342225DC2627270827A3260800720875
:100E38002000D9007108D800080001302000DE0722
:100E48000030DF3D08001630210097000800200020
:060E5800971708000800D6
:020000040001F9
:08000E008CFFF2FFFFDFFFFF92
:00000001FF
