:020000001528C1
:100008007E14803120007F08F0002100901E102807
:100018002000901E1028A32670082000FF007E10E4
:1000280009001628FC0158308400003085000F3084
:10003800F3267E1020002028E526FF30F100063048
:10004800F200F9268B170B178030320098008E25A6
:1000580000302000AC00AD0037267F302000CE00F5
:100068004E08E0007F30CE004E08E1007F30CE0021
:100078004E08E2001530CE004E08E5000030BA0008
:10008800BB000030BC00BD000730BE000030BF0020
:100098003F30C0000130C100FF30C200FF30C30054
:1000A800FE23E8302000BA000030BB000030BC005E
:1000B800BD00EF30BE000030BF003F30C00001304F
:1000C800C100FF30C200FF30C300FE23083020000B
:1000D800BA000030BB000030BC00BD00E730BE00F5
:1000E8000030BF000730C0000030C100FF30C20040
:1000F800FF30C300FE232000D301E0305302031871
:10010800B4283A30C7000030C8000030C900F830C1
:10011800CA005308083E17264A302000C70000309E
:10012800C800E030C9000730CA005308083E172647
:100138005A302000C7000030C800E030C900FF3046
:10014800CA005308083E172620302000CE004E086B
:10015800D307812896261130F1000030F200882656
:1001680020000C090839031D212BAE2821001C088A
:100178002000CE004E08E600083066020318C628A4
:100188000830DA286608283ECE000030031801300F
:10019800CF004F08803AD00080305002031DD62887
:1001A800E9304E02031CDD28C0302000CE004E0886
:1001B800E60020006608143ECE004E08E4001D301C
:1001C800DC000130DD00962603392000CE004E0801
:1001D800E30063356307CE004E08E300FC30CE0031
:1001E8004E08E30702306306031D630A031DFE2859
:1001F800FA300529FC306306031D0429FB30052964
:10020800FC30DA00FF30DB002C252C251130F10002
:100218000030F20088265E2521001C082000CE0050
:100228004E08E6000830660203181C2908303029F9
:100238006608283ECE00003003180130CF004F0872
:10024800803AD00080305002031D2C29E9304E023C
:10025800031C3329C0302000CE004E08E6002000E1
:100268006308CE004E08E4075A08DC075B08DD3D4A
:100278005B08803ACE0080304E02031D45290130CC
:100288005A02031CE02920005C08083ED500003013
:100298005D3DD60001305602353003195502031C66
:1002A8005D292C25D030F1000730F20088265E2524
:1002B800212B013020005602263003195502031C59
:1002C800F7296408043ECE00003003180130CF003F
:1002D8004F08803AD00080305002031D7529660807
:1002E8004E02031CF72920006608283ECE00003085
:1002F80003180130CF006408FC3ED000FF3003181B
:100308000030D1005108803AD2004F08803A52029A
:10031800031D90294E0850020318F7291D302000AC
:10032800DC000130DD00DA09DB09DA0A0319DB0A2F
:10033800962601390319F72920006308803A7C3E84
:10034800031CA92996260339BF296308803A833EEE
:100358000318B12996260339B8296308803A7F3EE5
:10036800031CBD29962602392000CE004E08E3075B
:10037800C329962602392000CE004E08E3026308FE
:10038800803A7B3E0318CD296308803A843E0318DF
:10039800CF29FC30DC296308803A7D3E0318D9292F
:1003A8006308803A823E0318DB29FB30DC29FA30E7
:1003B800DA00FF30DB00F72920005C08F83ED500A2
:1003C800FF305D3DD6000030560209300319550252
:1003D8000318F7291030DC000030DD00DA09DB09EA
:1003E800DA0A0319DB0A2000E31FFD296408043E2A
:1003F800FF296408FC3ECE004E08D4000130CE0030
:100408005408CF000530CF36890B072A4F08890AD0
:100418000E2ACE35890B0D2A4E08D0005008D70079
:100428005408E039083ECE004E08D4000030560289
:100438003A3003195502031C6A2A003056024A3022
:10044800031955020318372A6008570503196A2A41
:100458005709CE004E08E005DA09DB09DA0A031964
:10046800DB0A3A30622A003056025A300319550224
:1004780003184D2A6108570503196A2A5709CE003F
:100488004E08E105DA09DB09DA0A0319DB0A4A3002
:10049800622A003056026A300319550203186A2A84
:1004A8006208570503196A2A5709CE004E08E20563
:1004B800DA09DB09DA0A0319DB0A5A30C700003007
:1004C800C8005408572601302000E502E31F6F2AB0
:1004D8006408F03E702A6408CE004E08D40001304B
:1004E800CE005408CF000530CF36890B782A4F0844
:1004F800890A7F2ACE35890B7E2A4E08D0005008FB
:10050800D7005408E039083ECE004E08D4005B08F6
:10051800803ACE0080304E02031D942A01305A02E0
:10052800031C9C2A20005C08FC3ED500FF30A12A51
:1005380020005C08043ED50000305D3DD600003048
:1005480056023A3003195502031CEA2A00305602B3
:100558004A30031955020318BD2A600857050319C4
:10056800EA2A5709CE004E08E005E309E30A3A30C3
:10057800E22A003056025A30031955020318D02ACD
:10058800610857050319EA2A5709CE004E08E10504
:10059800E309E30A4A30E22A003056026A300319B6
:1005A80055020318EA2A620857050319EA2A570967
:1005B800CE004E08E205E309E30A5A30C7000030CE
:1005C800C8005408572601302000E5026408F83EA8
:1005D800CE00FF3003180030CF004F08803AD0001B
:1005E80080305002031DFA2A09304E020318FE2AF1
:1005F8001030122B20006408083ECE00003003188B
:100608000130CF004F08803AD00080305002031DDF
:100618000F2BE8304E02031C182BE0302000CE00D0
:100628004E08E400E309E30A20006508031D0929D0
:10063800E830F1000330F20088262000650803192D
:100648002C28BA2820003F08C9003E08C800CA0163
:10065800CB013F08C3003E08C200C235C30DC20922
:10066800C309C20A0319C30A4208033EC600003080
:10067800433DC7004908803AC2004B08803A42020D
:10068800031D482B4A084802031C0800200048099B
:10069800C2004909C300C20A0319C30A3A0842073B
:1006A800AC003B08433DAD0048083A07AE00490896
:1006B8003B3DAF004A09C4004B09C500C40A0319F1
:1006C800C50A3C084407B0003D08453DB100410853
:1006D800B3004008B200882420004809C200490934
:1006E800C300C20A0319C30A3A084207AC003B0810
:1006F800433DAD0048083A07AE0049083B3DAF000E
:100708004A083C07B0004B083D3DB1004108B30022
:100718004008B200882420004A09C2004B09C300DF
:10072800C20A0319C30A3A084207AC003B08433D12
:10073800AD004A083A07AE004B083B3DAF004809F8
:10074800C4004909C500C40A0319C50A3C0844077E
:10075800B0003D08453DB1004108B3004008B20073
:10076800882420004A09C2004B09C300C20A0319A1
:10077800C30A3A084207AC003B08433DAD004A08AB
:100788003A07AE004B083B3DAF0048083C07B000B5
:1007980049083D3DB1004108B3004008B200882433
:1007A8002000C71BE72BFF30C807FF30C93D4908A9
:1007B800C3004808C200C235C30DC235C30D420884
:1007C800C6024308C73B0130CA070030CB3D4B087F
:1007D800C3004A08C200C235C30DC235C30D420862
:1007E800023EC4000030433DC5004408C607450822
:1007F800C73D3E2B20003F08803AC4003B08803AA2
:100808004402031D092C3A083E020318182C200044
:100818003B08C6003A08C5003F08BB003E08BA00BE
:100828004608BF004508BE002000BF1B08003B0863
:10083800803AC40080304402031D242CF0303A0270
:100848000318080020004108803AC4003D08803A97
:100858004402031D312C3C0840020318402C2000A0
:100868003D08C6003C08C5004108BD004008BC0062
:100878004608C1004508C0002000C11B08003D080B
:10088800803AC40081304402031D4C2C40303C02A5
:10089800031808002000BD1F532CBC01BD014108EE
:1008A800803AC40081304402031D5C2C4030400271
:1008B800031C632C3F302000C0000130C100200021
:1008C8004108803AC4003D08803A4402031D6E2C5A
:1008D8003C084002031C080020003B08AD003A0811
:1008E800AC003F08AF003E08AE003D08B1003C0830
:1008F800B0004308B3004208B20088240130200049
:10090800BC070030BD3D632C2000B11B0800310836
:10091800803AB40081303402031D942C40303002F8
:100928000318080020002F08803AB4002D08803AE8
:100938003402031DA12C2C082E020318B02C200011
:100948002D08B9002C08B8002F08AD002E08AC00FF
:100958003908AF003808AE002000AF1B08002D088A
:10096800803AB40080303402031DBC2CF0302C02D5
:10097800031808002000AD1FC32CAC01AD012F08DF
:10098800803AB40080303402031DCC2CF0302E02A3
:10099800031CD32CEF302000AE000030AF00200045
:1009A8002D08A3002C08A2003108A5003008A400D7
:1009B8003308A7003208A6002C09B4002D09B50099
:1009C800B40A0319B50A2E083407B6002F08353DB6
:1009D800B7003608013EA8000030373DA900EB25D6
:1009E800080022008C01203021008C0020302300D8
:1009F8008C00083024008C0025008C0100308B1BF3
:100A08000130F1008B1355303C008F00AA308F0065
:100A18000F103D001108E039183891003C002008FB
:100A2800E0390138A0002108E0390238A1003D0072
:100A38001008E0391938900055303C008F00AA3072
:100A48008F000F14711C2A2D8B1708008B130800B8
:100A580020006408CC00CD014C08BA004D08BB004A
:100A68005D08BD005C08BC000730BE000030BF0058
:100A7800FF30C000FF30C100262320006608CC00EC
:100A8800CD014C08BA004D08BB002530BC00013030
:100A9800BD006608273EBE00003003180130BF00C5
:100AA8002930C0000130C100FF30C2000730C30048
:100AB800FE23080020006408CC00CD014C08BA00D1
:100AC8004D08BB005D08BD005C08BC000730BE00D7
:100AD8000030BF000030C000C10026232000660897
:100AE800CC00CD014C08BA004D08BB002530BC0035
:100AF8000130BD006608273EBE00003003180130F3
:100B0800BF002930C0000130C1000030C200C3005E
:100B1800FE23080022000C0804388C000C0810384A
:100B28008C000130F1000030F200882622000C0809
:100B3800EF398C000A30F1000030F20088262200DC
:100B48000C0810388C007830F1000030F20088264C
:100B58003630DD264830D5263A30DD265530D526C4
:100B68001130DD267830F1000030F2008826293077
:100B7800DD2608002A30DD267508F3007408F20027
:100B8800C326780874072000A0007908753DA100E5
:100B98002008FF3EF200FF30213DF300C3262B3032
:100BA800DD267708F3007608F200C3267A08760770
:100BB8002000A0007B08773DA1002008FF3EF2003E
:100BC800FF30213DF300C3262C30DD26080020002D
:100BD8002308F5002208F4002508F7002408F60089
:100BE8002908F9002808F8000130FA000030FB0055
:100BF800BE2522000C0804388C002000AA01AB0195
:100C080029082B02031D0A2E28082A0203180800A7
:100C18002708CC2620002608CC2601302000AA0769
:100C28000030AB3D042E2000CD004D08CB00CC0198
:100C38004B08BA004C08BB004808BD004708BC0078
:100C48004D081E3EBE00003003180130BF004708A3
:100C58000E3EC0000030483DC1004A08C3004908A4
:100C6800C200FE2308002000AE01AF0101302F02B0
:100C7800403003192E02031808000030A200A30018
:100C88002F08A5002E08A4002D08A7002C08A600F0
:100C9800F030A8000030A900EB2501302000AE0795
:100CA8000030AF3D3A2E2000CB004B08C900CA01E6
:100CB8004908BA004A08BB004808BD004708BC00FC
:100CC8004B081E3EBE00003003180130BF00470825
:100CD8000E3EC0000030483DC1000030C200C300D5
:100CE800FE23080001302000970044309800F930B6
:100CF800960095019012210090160C30F1000730F3
:100D0800F200F92609270800720820005F02031D77
:100D18008F2E71085E020318932E6300882EDE0161
:100D2800DF0108007C357C077C077C07F10071082F
:100D3800FC000130F1007108FC077C080800200065
:100D48009012580859040319080059088A005808CD
:100D58000A0086310800320099019B019D01063086
:100D68009F009E011C180800B62E173021009D0018
:100D780020309E0003309F009B019C010800220048
:100D88000C0804388C007308CC267208CC2608009E
:100D9800F1002400951371089100141CD12E11083C
:100DA8000800F20022000C0804388C007208CC26D7
:100DB8000800F20022000C08FB398C007208CC26CF
:100DC8000800F524AF260527EC26B9267626080064
:100DD80040302400940020309500920108006400FF
:100DE80080010131890BF42E003472082000D900EB
:100DF8007108D800080001302000DE070030DF3D10
:100E080008001630210097000800200097170800F6
:020E18000800D0
:020000040001F9
:08000E008CFFF2FFFFDFFFFF92
:00000001FF
